:100000000C9442000C946A000C946A000C946A00F0
:100010000C946A000C946A000C946A000C946A00B8
:100020000C946A000C9492110C94BB110C94E41182
:100030000C9488120C940D120C9436120C945F12CE
:100040000C9417110C9440110C9469110C946A00D3
:100050000C94EF0C0C94A20A0C946A000C946A00A5
:100060000C946A000C946A000C946A000C946A0068
:100070000C94C40C0C94F00A0C946A0091031A0DB1
:100080001514E40311241FBECFEFD0E1DEBFCDBFB6
:1000900012E0A0E0B1E0E4E7F6E302C005900D92C3
:1000A000A63BB107D9F714E0A6EBB2E001C01D9260
:1000B000A33AB107E1F710E0C2E8D0E004C022970C
:1000C000FE010E94A515CC37D107C9F70E94E909A6
:1000D0000C942D1B0C9400000F931F93CF93DF9370
:1000E000EB018A0142E0BC018DE00E94240D42E058
:1000F000BE018CE00E94240D42E0B8018AE0DF914D
:10010000CF911F910F910C94240DEF920F936DEFEF
:1001100071E086ED92E00E94490F1092D502109294
:10012000D3021092D2021092D0023D9A3C9A3A9A8F
:100130003B984FEF50E060E070E080E090E00E947C
:100140006C0061E0809108010E94690960E0809183
:1001500006010E946909209A0898219A0E9435098F
:100160006093C0027093C1028093C2029093C30255
:10017000E12C01E028E040E855E260E070E08DED20
:1001800093E00E94C20B0F91EF9008955F926F92DF
:100190007F928F929F92AF92BF92CF92DF92EF9217
:1001A000FF920F931F93CF93DF93CDB7DEB72797BF
:1001B0000FB6F894DEBF0FBECDBF3C0193E1A92E70
:1001C000B12CE12CF12C03E010E0B70187E793E0BC
:1001D0000E94C208C82ED12C2BC0C0FC05C00E5FE7
:1001E0001F4FD594C79424C0B80187E793E00E94BD
:1001F000C208582EB8016F5F7F4F87E793E00E94D7
:10020000C208982E812CB401650D711D4AE0CE0103
:1002100001960E94630FB301CE0101960E94201047
:10022000582ECE0101960E949A0E5520C1F211C09F
:10023000C114D10491F68FEFE81AF80A850180E124
:10024000A80EB11C83E0E816F10409F0BECF80E0EF
:1002500001C081E027960FB6F894DEBF0FBECDBF78
:10026000DF91CF911F910F91FF90EF90DF90CF9092
:10027000BF90AF909F908F907F906F905F90089508
:10028000BF92CF92DF92EF92FF920F931F93CF9383
:10029000DF93CDB7DEB727970FB6F894DEBF0FBE5A
:1002A000CDBF7C0100E010E03EC00F5F1F4F980102
:1002B000A601B701CE0101960E949E1069E172E08D
:1002C000CE0101960E943110B82ECE0101960E94F7
:1002D0009A0EBB2041F1960140E050E0B701CE01FB
:1002E00001960E949E10BE016F5F7F4F85E093E0F4
:1002F0000E94280FCE0101960E949A0EF7012481D8
:100300003581A801B701CE0101960E949E10BE0161
:100310006F5F7F4F8EEF92E00E94280FCE01019613
:100320000E949A0E08C06801F70184819581081720
:10033000190708F4BACF27960FB6F894DEBF0FBEA0
:10034000CDBFDF91CF911F910F91FF90EF90DF9084
:10035000CF90BF9008950F931F93CF93DF938C019D
:10036000EB016FE171E08DED93E00E94040EC80196
:1003700060E071E00E943D15BE01660F771F6D5F62
:100380007F4F482F87E793E00E94C508A80117FF19
:1003900002C041505F4F452F550F550BBE016E5F98
:1003A0007F4F660F771F87E793E00E94C5088E0195
:1003B000D7FF02C0095F1F4F23E0159507952A95C7
:1003C000E1F71127B80187E793E00E94C208482FA0
:1003D000CE0168E070E00E943D1521E030E001C0F0
:1003E000220F8A95EAF7422BB80187E793E0DF9165
:1003F000CF911F910F910C94C5080F931F93CF932A
:10040000DF938C01EB0165E371E08DED93E00E94D9
:10041000040EC80160E071E00E943D15BE01660F48
:10042000771F6D5F7F4F482F87E793E00E94C508D5
:10043000A80117FF02C041505F4F452F550F550BC4
:10044000BE016E5F7F4F660F771F87E793E0DF91F6
:10045000CF911F910F910C94C508EF92FF920F93CB
:100460001F93CF93DF9300D000D0CDB7DEB78C01C0
:100470001F938F938EE491E09F938F93CE0101960B
:100480009F938F930E94321861E571E08DED93E0A8
:100490000E94040E78010F900F900F900F900F9014
:1004A0000F9017FF03C087E0E80EF11C83E0F5947E
:1004B000E7948A95E1F7FF24B70187E793E00E946C
:1004C000C208482FC80168E070E00E943D1521E095
:1004D00030E001C0220F8A95EAF74227B70187E78B
:1004E00093E00E94C5080F900F900F900F90DF913E
:1004F000CF911F910F91FF90EF90089566E671E004
:100500008DED93E00E94040E40E060E070E087E72C
:1005100093E00E94C50840E061E070E087E793E067
:100520000E94C50840E062E070E087E793E00C9429
:10053000C508CF92DF92EF92FF92CF93DF93CDB7B2
:10054000DEB727970FB6F894DEBF0FBECDBF809100
:100550004503882309F4D8C06EE373E0CE01019609
:100560000E943F0FCE0101960E944001CE010196EC
:100570000E949A0E66E473E085E093E00E942010EA
:100580008823F1F06EEF72E0CE0101960E943F0FDA
:10059000CE0101960E944001CE0101960E949A0E62
:1005A00085E093E00E94E3106B017C018EEF92E006
:1005B0000E94E310DC01CB01B6010E94AB019CC09C
:1005C0006DE473E085E093E00E9420108823F1F051
:1005D0006EEF72E0CE0101960E943F0FCE010196B0
:1005E0000E944001CE0101960E949A0E85E093E0A0
:1005F0000E94E3106B017C018EEF92E00E94E310F9
:10060000DC01CB01B6010E94FD0176C064E573E018
:1006100085E093E00E942010882341F08EEF92E065
:100620000E94E310CB010E942D0266C06BE573E0CF
:1006300085E093E00E942010882319F00E947E023A
:100640005BC062E673E085E093E00E94201088239F
:10065000E9F06EEF72E0CE0101960E943F0FCE01ED
:1006600001960E944001CE0101960E949A0E65E01B
:1006700073E0CE0101960E943F0FCE0101960E94C9
:10068000C600CE0101960E949A0E36C069E673E05C
:1006900085E093E00E942010882371F164E871E006
:1006A0008DED93E00E94040E6EEF72E08DED93E00D
:1006B0000E94F00D60E773E08EEF92E00E94201040
:1006C000882321F081E08093FD0209C066E971E092
:1006D0008EEF92E00E94311081111092FD024AE0EB
:1006E00050E06091FD028DED93E00E94810E81E06B
:1006F0008093FC021092FB026DEF71E08EE393E0B9
:100700000E94490F1092450327960FB6F894DEBF5A
:100710000FBECDBFDF91CF91FF90EF90DF90CF90D4
:100720000895EF920F936DEF71E08EE393E00E94D6
:100730000B0F6DEF71E085E093E00E940B0F6DEF02
:1007400071E08EEF92E00E940B0F68E971E086E4A1
:1007500093E00E940B0F65EA71E08DE493E00E9444
:100760000B0F65EB71E084E593E00E940B0F65ECE5
:1007700071E08BE593E00E940B0F6AED71E082E679
:1007800093E00E940B0F6BEE71E089E693E00E940C
:100790000B0F6AE772E080E793E00E940B0F93E093
:1007A000E92E04E02AE031E04DE051E061E171E042
:1007B0008DED92E00E9496086DEF71E086ED92E07B
:1007C0000F91EF900C940B0F86ED92E00E949A0E21
:1007D00080E793E00E949A0E89E693E00E949A0EC9
:1007E00082E693E00E949A0E8BE593E00E949A0EB7
:1007F00084E593E00E949A0E8DE493E00E949A0EA5
:1008000086E493E00E949A0E8EEF92E00E949A0E88
:1008100085E093E00E949A0E8EE393E00C949A0E8A
:10082000CF93DF93D1E018C08DED93E00E941B0AB7
:10083000C82F682F8EE393E00E94DC0FCA3061F46A
:1008400020E030E042E350E06CE073E08EE393E0C0
:100850000E947410D09345038DED93E00E94F0093F
:10086000892B11F7DF91CF9108950F931F93CF93A9
:10087000DF93CDB7DEB727970FB6F894DEBF0FBE74
:10088000CDBF0E9435090091C0021091C102209194
:10089000C2023091C302601B710B820B930B68384C
:1008A00073418105910580F067EF71E08DED93E074
:1008B0000E94040E0E9435096093C0027093C10229
:1008C0008093C2029093C3028091D202811107C02B
:1008D0008DED92E00E944C07811102C009C0FFCF4C
:1008E0002091DA023091DB022430310508F451C244
:1008F0008091DA029091DB020497D9F466ED72E000
:10090000CE0101960E943F0FCE0101960E94C600C3
:10091000182FCE0101960E949A0E112351F00E94C9
:1009200035096093CC027093CD028093CE029093F0
:10093000CF028091D402882341F16AEF71E0CE01A9
:1009400001960E940B0FBE016F5F7F4F86ED92E014
:100950000E945310182FCE0101960E949A0E112367
:10096000A1F04FEF50E060E070E080E090E00E9486
:100970006C001092D5021092D4026DEF71E086EDFA
:1009800092E00E94490F1092D1026CEF71E0CE010B
:1009900001960E940B0FBE016F5F7F4F86ED92E0C4
:1009A0000E945310882339F011E08091DA0290916F
:1009B000DB02059708F010E0CE0101960E949A0E26
:1009C000112361F06DEF71E086ED92E00E94490F16
:1009D0006EEF71E08DED93E00E94040E66ED72E023
:1009E000CE0101960E943F0FCE0101960E94C600E3
:1009F000882351F08091DA029091DB02049721F470
:100A000011E08091FB02811110E0CE0101960E945D
:100A10009A0E112391F06EE072E08DED93E00E944A
:100A2000CA0D66ED72E08DED93E00E94F00D81E05D
:100A30008093D1028093FB0255C08091FD028823F0
:100A4000A1F08091D102882381F081E08093D502CA
:100A50008093D40240E050E06FEF70E080E090E0DF
:100A60000E946C001092D3023DC066ED72E0CE0190
:100A700001960E943F0FCE0101960E94C60081118F
:100A800007C011E08091DA029091DB02049709F02F
:100A900010E0CE0101960E949A0E112319F1809167
:100AA000D3028F5F8093D3028330B1F040E050E0F7
:100AB00060E070E08FEF90E00E946C0068EE73E001
:100AC00080E090E00E9447094FEF50E060E070E066
:100AD00080E090E00E946C006DEF71E086ED92E0A6
:100AE0000E94490F8091D302833050F16DEF71E085
:100AF00086ED92E00E94490F1092D3026BE172E002
:100B00008DED93E00E94040E40E050E060E070E064
:100B10008FEF90E00E946C0060E375E780E090E06A
:100B20000E94470969E272E08DED93E00E94040E95
:100B30004FEF50E060E070E080E090E00E946C00D9
:100B40008091D002811108C0339B36C08091D402BD
:100B5000882309F435C130C0339B22C00E94350977
:100B60000091CC021091CD022091CE023091CF02A3
:100B7000601B710B820B930B6033754781059105E8
:100B8000D8F040E050E060E070E08FEF90E00E942D
:100B90006C0069E372E08DED93E00E94040E0CC0DE
:100BA0004FEF50E060E070E080E090E00E946C0069
:100BB0001092D5021092D0028091D402882309F1BC
:100BC0000E9435090091CC021091CD022091CE02F5
:100BD0003091CF02601B710B820B930B6033754712
:100BE0008105910570F040E050E060E070E08FEF2B
:100BF00090E00E946C0069E372E08DED93E00E944A
:100C0000040E809106010E9497098093BE02109203
:100C1000BF02682F809108010E94BB090091BE02AB
:100C20001091BF028091BC029091BD02013011056C
:100C300099F4892B51F463E572E08DED93E00E9405
:100C4000040E1093BD020093BC0264E670E080E0E5
:100C500090E00E9447090CC0019751F463E672E0EE
:100C60008DED93E00E94040E1092BD021092BC0222
:100C700088E10E94D008BC01882777FD8095982FD5
:100C80000E942A142DEC3CEC4CEA50E40E94DA1449
:100C900020E030E040E85AE30E94DA14FB01462FDE
:100CA0005F2F682F792F4093B8025093B902609359
:100CB000BA027093BB022AE939E949E95FE3BF014F
:100CC0000E9424141816FCF08091B702811126C0EE
:100CD0000E9435096093C8027093C9028093CA02CA
:100CE0009093CB0281E08093B702289A60E772E08C
:100CF0008DED93E00E94040E68EC70E080E090E0DF
:100D00000E9447090BC028981092B70242E060E0A9
:100D100070E081E10E94240D1092B6020E94350914
:100D20000091C8021091C9022091CA023091CB02F1
:100D3000601B710B820B930B683873418105910521
:100D400040F08091B602811104C08091B7028111F8
:100D500051C00E9435090091C4021091C502209132
:100D6000C6023091C702601B710B820B930B603D72
:100D700077408105910540F08091B602882321F0EB
:100D80008091B70281114AC00E9410040E9499020A
:100D900062C0682FCE0101960E94900FBE016F5F66
:100DA0007F4F86ED92E00E94D50FCE0101960E9402
:100DB0009A0E66ED72E08DED93E00E94F00D98CDF5
:100DC0000E9435096093CC027093CD028093CE02CD
:100DD0009093CF0211E01093D00240E050E06FEF0B
:100DE00070E080E090E00E946C001093D5021092B9
:100DF000D302E2CE42E06FEF70E081E10E94240D69
:100E00000E9435096093C4027093C5028093C602A4
:100E10009093C70281E08093B6029BCF42E060E0EE
:100E200070E081E10E94240D0E9435096093C402A4
:100E30007093C5028093C6029093C7021092B602C7
:100E40000E9435096093C8027093C9028093CA0258
:100E50009093CB0299CF27960FB6F894DEBF0FBEC2
:100E6000CDBFDF91CF911F910F910895DC011896AE
:100E70008D919C9119978617970769F019967C9325
:100E80006E9318975C96ED91FC915D97309719F0F1
:100E90001A968C91099408954F925F926F927F9267
:100EA000AF92BF92CF92DF92EF92FF920F931F9378
:100EB000CF93DF93EC01A12CA8C00A2D10E0EC81A8
:100EC000FD81E00FF11F60E080810E94BB09B12C21
:100ED00068018EC0EB2CF12C8F81E881F981EC0D3B
:100EE000FD1DB89EE00DF11D11249A858081981397
:100EF0003CC00E9435094E845F84688879886419F3
:100F00007509860997094A8C5B8C612C712C6415D4
:100F100075058605970550F0EA81FB81EE0DFF1DF2
:100F200080810E949709882309F498C00E9435099E
:100F30004E845F84688879886419750986099709E1
:100F4000488C598C612C712C6415750586059705A4
:100F500008F493C0EA81FB81EB0DF11D80810E94B2
:100F60009709813009F089C07FC00E9435094E84FD
:100F70005F84688879886419750986099709488C9F
:100F8000598C612C712C641575058605970578F1CF
:100F9000EA81FB81EE0DFF1D80810E94970981117E
:100FA00026C0EC81FD81E00FF11F61E080810E948D
:100FB000BB092F812E9DC0012F9D900D1124E8812A
:100FC000F981EC0DFD1DE80FF91FF0808E859F85DE
:100FD000A889B9898A8B9B8BAC8BBD8B0E94350904
:100FE0006E877F87888B998BF11015C005C0B394ED
:100FF0008E81B81608F46ECFEC81FD81E00FF11FF1
:1010000061E080810E94BB09A3948F81A81608F437
:1010100054CF80E040C08B85F81239C00E9435095A
:101020000A891B892C893D89601B710B820B930BEC
:101030000E891F8920E030E00617170728073907B7
:1010400010F525C081E090E09D878C87FA8661E0ED
:1010500070E0CE010E9436078A851DC063E070E013
:10106000CE010E94360762CF62E070E0CE010E949E
:1010700036078A858B871A86BFCF8885998503971F
:1010800009F0B5CFB9CF8C859D850196DDCF8A85D6
:10109000F812D8CFBECFDF91CF911F910F91FF9063
:1010A000EF90DF90CF90BF90AF907F906F905F9068
:1010B0004F900895FF920F931F93CF93DF93EC010E
:1010C000F12C13C00F2D10E0EA81FB81E00FF11F1E
:1010D00060E080810E946909EA81FB81E00FF11FD5
:1010E00061E080810E94BB09F3948E81F81650F371
:1010F000F12C13C00F2D10E0EC81FD81E00FF11FEA
:1011000061E080810E946909EC81FD81E00FF11F9F
:1011100061E080810E94BB09F3948F81F81650F33F
:10112000DF91CF911F910F91FF900895EF920F9350
:10113000FC0153834283358324830683E7827183D2
:10114000608316861786108A118A128A138A148A77
:10115000158A8CE291E0978B868B82E390E0918FE9
:10116000808F88EE93E0938F828F158E148E128677
:1011700013861186108615861486CF010F91EF9085
:101180000C945A08CB010C94301ACB01642F0C94A8
:10119000381A80E480937C0087E880937A00089571
:1011A000CF93DF931F92CDB7DEB790911D019130A1
:1011B00031F489830E94C90810921D0189818770CA
:1011C00020911E0140E4249F90011124822B8093E2
:1011D0007C0080917A00806480937A0080917A000C
:1011E00086FDFCCF2091780030917900932F80E02C
:1011F000FC01E22B9F01C9010F90DF91CF9108956F
:101200008091790390917A03A0917B03B0917C0344
:1012100030917803232F2D5F2D3720F40196A11DE7
:10122000B11D05C0232F2A570296A11DB11D209381
:1012300078038093790390937A03A0937B03B09310
:101240007C0380917D0390917E03A0917F03B091F8
:1012500080030196A11DB11D80937D0390937E03B1
:10126000A0937F03B093800308950F931F938FB7CC
:10127000F8940091790310917A0320917B033091C7
:101280007C038FBFB801C9011F910F9108958F9200
:101290009F92AF92BF92CF92DF92EF92FF926B013B
:1012A0007C010E9435094B015C010E9435096819D7
:1012B00079098A099B096C157D058E059F05A8F3A0
:1012C000FF90EF90DF90CF90BF90AF909F908F9066
:1012D0000895982F977021E030E0092E01C0220F69
:1012E0000A94EAF786958695869581F0813089F093
:1012F000823091F08330D1F412C080812095822316
:1013000002C08081822B80839FBF0895EAE2F0E0D3
:1013100008C0E7E2F0E005C0E4E2F0E002C0E1E28C
:10132000F0E09FB7F894662341F3EBCF0895982F30
:10133000977021E030E001C0220F9A95EAF7869578
:101340008695869539F0813041F0823049F08330BE
:1013500051F00895E9E2F0E008C0E6E2F0E005C0EF
:10136000E3E2F0E002C0E0E2F0E09081922381E06D
:1013700009F480E00895982F977021E030E0092E5D
:1013800001C0220F0A94EAF786958695869581F02A
:10139000813089F0823091F08330D1F412C08081A5
:1013A0002095822302C08081822B80839FBF089575
:1013B000EBE2F0E008C0E8E2F0E005C0E5E2F0E0D2
:1013C00002C0E2E2F0E09FB7F894662341F3EBCF6E
:1013D00008950E94EF100E9485000E943504FDCF01
:1013E000FC0120893189C9010895DC0150962D91B5
:1013F0003C915197232B49F05496ED91FC915597D0
:10140000E80FF91F268930E002C02FEF3FEFC90136
:101410000895FC01118A108A158A148A138A128A87
:101420000895FC0124813581C9010895FC012481BE
:101430003581C9010895FC0180899189892BD1F0FA
:101440003FB7F894808991890197918B808B84892B
:101450009589DF01A80FB91F56962C91019680320D
:1014600091051CF4958B848B02C0158A148A3FBFAA
:1014700030E002C02FEF3FEFC9010895EF92FF92D5
:101480001F93CF93DF931F92CDB7DEB77C01D701B7
:10149000DA968D919C91DB974097C8F71FB7F89427
:1014A000D696ED91FC91D7970190F081E02DC70180
:1014B000C6966983099569814097C8F4F70182ADA2
:1014C00093AD019693AF82AF84AD95ADE80FF91F50
:1014D000E05CFF4F60830196D701DD969C938E936D
:1014E000DC97409724F0DD961C921E92DC97F70162
:1014F000EA5AFF4F0190F081E02D80818062808365
:101500001FBF81E090E00F90DF91CF911F91FF907E
:10151000EF900895665F7F4F680F791FCB010895A4
:10152000665F7F4F680F791FCB010895665F7F4F1D
:10153000680F791FCB010895665F7F4F680F791F91
:10154000CB0108951F920F920FB60F9211242F9383
:101550008F939F93AF93BF93EF93FF938091170463
:1015600090911804892B21F1E0913704F09138040F
:101570008091170490911804019790931804809318
:10158000170480911B0490911C04DC01AD5EBB4FDD
:101590001A962C910196803191052CF490931C049D
:1015A00080931B0404C010921C0410921B0420831F
:1015B0008091170490911804892B31F4E091330441
:1015C000F091340488E98083FF91EF91BF91AF914E
:1015D0009F918F912F910F900FBE0F901F90189594
:1015E0001F920F920FB60F9211242F938F939F93F8
:1015F000AF93BF93EF93FF938091BB039091BC0394
:10160000892B21F1E091DB03F091DC038091BB0396
:101610009091BC0301979093BC038093BB0380918E
:10162000BF039091C003DC01A954BC4F1A962C91C2
:101630000196803191052CF49093C0038093BF03F1
:1016400004C01092C0031092BF0320838091BB039B
:101650009091BC03892B31F4E091D703F091D8032A
:1016600088E98083FF91EF91BF91AF919F918F9116
:101670002F910F900FBE0F901F901895FC01262FF1
:101680001382128248EE53E060E070E04483558399
:101690006683778380E892E09183808380E992E09B
:1016A0009587848780E290E097878687118A108AE1
:1016B000158A148A138A128A8AE992E097AB86AB5C
:1016C00080E190E091AF80AF13AE12AE17AE16AED0
:1016D00015AE14AE222321F0213009F052C028C0EB
:1016E000DF01A05BBF4F85EC90E08D939C93DF0101
:1016F000AE5ABF4F84EC90E08D939C93DF01AC5ABF
:10170000BF4F80EC90E08D939C93DF01AA5ABF4FAE
:1017100081EC90E08D939C93DF01A85ABF4F82EC3F
:1017200090E08D939C93E65AFF4F86EC90E027C0A3
:10173000DF01A05BBF4F8DEC90E08D939C93DF01A8
:10174000AE5ABF4F8CEC90E08D939C93DF01AC5A66
:10175000BF4F88EC90E08D939C93DF01AA5ABF4F56
:1017600089EC90E08D939C93DF01A85ABF4F8AECDF
:1017700090E08D939C93E65AFF4F8EEC90E091831E
:10178000808308953F924F925F926F927F928F92E3
:101790009F92AF92BF92CF92DF92EF92FF920F9300
:1017A0001F93CF93DF93EC014A015B01122F3E2C74
:1017B00060E072E18AE790E0A50194010E94511572
:1017C00069017A0184E0C80ED11CE11CF11C83E0A0
:1017D000F694E794D794C7948A95D1F760E074E2C1
:1017E00084EF90E0A50194010E94511529013A016E
:1017F00094E0490E511C611C711C93E0769467942F
:10180000579447949A95D1F7A301920144275527FD
:1018100060E874E88EE190E00E9473155901A81801
:10182000B908B7FE03C0B194A194B108A70196010D
:101830004427552760E472E48FE090E00E9473151E
:101840002819390937FF03C0319521953109FE0167
:10185000EC5AFF4F0190F081E02DA216B3063CF444
:1018600082E08083620181E0C81AD10804C010823E
:1018700091E0C91AD1081630C1F018F4153099F466
:1018800005C0173029F0193071F404C080E00EC093
:1018900084E00CC0FE01EA5AFF4F0190F081E02D78
:1018A00080818460808386E001C082E0023009F498
:1018B000886091E0391621F092E0391204C002C02C
:1018C000806301C08062FE01E85AFF4F0190F08101
:1018D000E02D8083FE01E05BFF4F0190F081E02D61
:1018E000D082FE01EE5AFF4F0190F081E02DC082C0
:1018F000CA5ADF4FE881F98188E98083DF91CF916F
:101900001F910F91FF90EF90DF90CF90BF90AF901D
:101910009F908F907F906F905F904F903F90089531
:101920000F931F93CF93DF931F92CDB7DEB78C0138
:10193000DC01ED91FC910190F081E02D6983099526
:1019400069818097D0F4F80184819581019695830F
:10195000848386819781E80FF91F62870196803220
:10196000910534F4D80117969C938E93169703C073
:10197000F8011782168281E001C080E00F90DF91AC
:10198000CF911F910F9108951F920F920FB60F9252
:1019900011242F933F934F935F936F937F938F9374
:1019A0009F93AF93BF93EF93FF93E091DB03F0918D
:1019B000DC0360818DE893E00E94900CFF91EF9131
:1019C000BF91AF919F918F917F916F915F914F9157
:1019D0003F912F910F900FBE0F901F9018951F925F
:1019E0000F920FB60F9211242F933F934F935F9353
:1019F0006F937F938F939F93AF93BF93EF93FF93D7
:101A0000E0913704F0913804608189EE93E00E9400
:101A1000900CFF91EF91BF91AF919F918F917F912A
:101A20006F915F914F913F912F910F900FBE0F904B
:101A30001F90189560E08DED93E00E943E0B61E0F1
:101A400081E893E00C943E0B1F93CF93DF93182F04
:101A5000EB01209721F460E00E94BB0940E01430C4
:101A600079F1153029F11630E9F1173099F1133178
:101A700069F0143109F044C011C060E001C061E0B8
:101A8000812FDF91CF911F910C94BB0960E08DE70E
:101A900094E00E94C413AE0160E007C061E08DE7EE
:101AA00094E00E94C413AE0161E08DE794E023C08E
:101AB00060E08BE594E00E94C413AE0160E007C0D3
:101AC00061E08BE594E00E94C413AE0161E08BE518
:101AD00094E011C060E089E394E00E94C413AE0179
:101AE00060E007C061E089E394E00E94C413AE01A6
:101AF00061E089E394E0DF91CF911F910C94F113A1
:101B0000C038D10508F4B9CFBACFCF92DF92EF92A7
:101B1000FF920F931F93CF93DF936C01EB017A0138
:101B2000E60EF71E00E010E00BC06991D601ED91C2
:101B3000FC910190F081E02DC6010995080F191F55
:101B4000CE15DF0591F7C801DF91CF911F910F915D
:101B5000FF90EF90DF90CF9008956115710581F0AF
:101B6000DB010D900020E9F7AD0141505109461B02
:101B7000570BDC01ED91FC910280F381E02D09947B
:101B800080E090E00895DC01ED91FC910190F081FE
:101B9000E02D09940C94AD0DDC01ED91FC91DB017D
:101BA00014964D915C9115976D917C910280F38113
:101BB000E02D09940F931F93CF93DF93EC016DE019
:101BC0000E94C30D8C016AE0CE010E94C30D9C01EE
:101BD000200F311FC901DF91CF911F910F910895FF
:101BE0000F931F93CF93DF93EC010E94CC0D8C01D8
:101BF000CE010E94DA0D9C01200F311FC901DF9137
:101C0000CF911F910F9108950F931F93CF93DF935F
:101C1000EC010E94AD0D8C01CE010E94DA0D9801FD
:101C2000280F391FC901DF91CF911F910F9108959E
:101C30004F925F926F927F929F92AF92BF92CF929C
:101C4000DF92EF92FF920F931F93CF93DF93CDB765
:101C5000DEB7A1970FB6F894DEBF0FBECDBF5C0113
:101C60006A017B01922E19A281E0821710F08AE0AE
:101C7000982E8E010F5D1F4F492C512C612C712C19
:101C8000C701B601A30192010E9451158C2D929EAD
:101C900080191124015011098A3014F4805D01C0AB
:101CA000895CF801808369017A01C114D104E104DF
:101CB000F10431F7B801C5010E94AD0DA1960FB630
:101CC000F894DEBF0FBECDBFDF91CF911F910F9172
:101CD000FF90EF90DF90CF90BF90AF909F907F905C
:101CE0006F905F904F9008952115310541F4DC010C
:101CF000ED91FC910190F081E02D642F09940C94FA
:101D0000180E0F931F93CF93DF93EC019A01462F88
:101D100050E060E070E00E94740E8C01CE010E94E1
:101D2000DA0D9801280F391FC901DF91CF911F915A
:101D30000F910895FC01808191810C944416CF93FA
:101D4000DF93EC0188819981009711F00E9444167D
:101D5000198218821D821C821B821A82DF91CF9108
:101D600008950F931F93CF93DF93EC018B016F5F67
:101D70007F4F888199810E94E116009731F0998305
:101D800088831B830A8381E001C080E0DF91CF91CB
:101D90001F910F910895CF93DF93EC018881998172
:101DA000892B31F08A819B818617970708F00CC038
:101DB000CE010E94B10E882349F08C819D81892B30
:101DC00019F4E881F981108281E001C080E0DF919F
:101DD000CF910895EF92FF920F931F93CF93DF93CC
:101DE000EC017B018A01BA010E94CB0E811104C073
:101DF000CE010E949F0E07C01D830C83B70188810E
:101E000099810E94E617CE01DF91CF911F910F912A
:101E1000FF90EF900895DC0111961C921E9213968C
:101E20001C921E92129715961C921E92149716964B
:101E30001C926115710559F0DB010D900020E9F746
:101E4000AD0141505109461B570B0C94EA0E089501
:101E5000CF93DF93EC01FB018617970761F0608158
:101E600071816115710529F0448155810E94EA0E46
:101E700002C00E949F0ECE01DF91CF910895FC0118
:101E800011821082138212821582148216820C949F
:101E9000280FCF93DF93D82FC92F6115710561F0FB
:101EA000DB010D900020E9F7AD0141505109461BBF
:101EB000570B0E94EA0E02C00E949F0E8D2F9C2F8E
:101EC000DF91CF9108950F931F93CF93DF93CDB7F9
:101ED000DEB762970FB6F894DEBF0FBECDBF8C01A0
:101EE000CB01F801118210821382128215821482B2
:101EF000168250E0BE016F5F7F4F0E94FC17BE014B
:101F00006F5F7F4FC8010E94490F62960FB6F89429
:101F1000DEBF0FBECDBFDF91CF911F910F9108950E
:101F2000CF93DF9300D0CDB7DEB7FC0111821082D2
:101F30001382128215821482168269831A82BE016C
:101F40006F5F7F4F0E94490F0F900F90DF91CF91ED
:101F50000895EF92FF920F931F93CF93DF93EC01BD
:101F60007B010C811D816115710511F480E016C0A3
:101F70004115510591F0040F151FB8010E94CB0EB9
:101F80008823A1F3288139818C819D81B701820F3B
:101F9000931F0E94E6171D830C8381E0DF91CF9190
:101FA0001F910F91FF90EF900895FB01448155819F
:101FB000608171810C94A90FCF93DF9300D0CDB7CE
:101FC000DEB769831A8241E050E0BE016F5F7F4F48
:101FD0000E94A90F0F900F90DF91CF910895CF939A
:101FE000DF93DC01ED91FC91EB01A881B981309781
:101FF00011F01097C9F4109759F0EB012C813D8135
:10200000232B31F02C9130E031952195310914C00A
:10201000309781F0DC0114968D919C911597892B56
:1020200049F0208130E008C0BD01CF01DF91CF91A0
:102030000C94DD1720E030E0C901DF91CF910895C5
:10204000FC0144815581FB012481358142175307EE
:1020500029F40E94EF0F21E0892B09F020E0822F64
:102060000895DC0114962D913C911597232B39F49A
:1020700081E06115710511F0FB0108C00895DC01D4
:10208000ED91FC916115710529F481E0908199230E
:1020900049F007C0CF010E94DD179C0181E0232B8E
:1020A00009F080E00895FC0184819581DB0114969C
:1020B0004D915C91159784179507A0F0208131818F
:1020C0002115310579F06D917C916115710551F003
:1020D000841B950B820F931F0E94DD179C0181E0EA
:1020E000232B09F080E008950F931F93CF93DF9384
:1020F000EB0141155105E9F02097D9F0FC0104816D
:1021000015812017310708F013C041505109021BF7
:10211000130B4017510708F48A01FC01608171819B
:10212000620F731FA801CE010E94ED17C00FD11FCF
:102130001882DF91CF911F910F910895BF92CF9296
:10214000DF92EF92FF920F931F93CF93DF936C0177
:102150007B01EA0189012417350720F48D2FE9015D
:10216000042F182F6DEF71E0C6010E940B0FD701ED
:1021700014968D919C9115978C179D07C8F0801728
:10218000910708F48C01D701ED91FC911197E00FB4
:10219000F11FB08010826D917C916C0F7D1FC60184
:1021A0000E94490FD701ED91FC91E00FF11FB08221
:1021B000C601DF91CF911F910F91FF90EF90DF90BB
:1021C000CF90BF900895FC0180819181009711F01C
:1021D0000C94AD1760E070E080E090E0089563E05B
:1021E0008DE794E00E94AE1321E040E059E060E00A
:1021F0008DE794E00E94841364E08DE794E00E94F0
:10220000B11261E08BE594E00E94AE1364E08BE5CF
:1022100094E00E94B11261E089E394E00E94AE1361
:1022200064E089E394E00E94B112789408951F92CB
:102230000F920FB60F9211242F933F934F935F93FA
:102240006F937F938F939F93AF93BF93EF93FF937E
:10225000E0919704F0919804309709F00995FF9167
:10226000EF91BF91AF919F918F917F916F915F910E
:102270004F913F912F910F900FBE0F901F90189587
:102280001F920F920FB60F9211242F933F934F93EB
:102290005F936F937F938F939F93AF93BF93EF93CE
:1022A000FF93E0919904F0919A04309709F0099511
:1022B000FF91EF91BF91AF919F918F917F916F911E
:1022C0005F914F913F912F910F900FBE0F901F90F4
:1022D00018951F920F920FB60F9211242F933F93D0
:1022E0004F935F936F937F938F939F93AF93BF931E
:1022F000EF93FF93E0919504F0919604309709F0E5
:102300000995FF91EF91BF91AF919F918F917F912F
:102310006F915F914F913F912F910F900FBE0F9052
:102320001F9018951F920F920FB60F9211242F93A2
:102330003F934F935F936F937F938F939F93AF934D
:10234000BF93EF93FF93E0915304F09154043097BF
:1023500009F00995FF91EF91BF91AF919F918F91F6
:102360007F916F915F914F913F912F910F900FBE91
:102370000F901F9018951F920F920FB60F92112475
:102380002F933F934F935F936F937F938F939F937D
:10239000AF93BF93EF93FF93E0915504F0915604F0
:1023A000309709F00995FF91EF91BF91AF919F91FF
:1023B0008F917F916F915F914F913F912F910F90EE
:1023C0000FBE0F901F9018951F920F920FB60F928D
:1023D00011242F933F934F935F936F937F938F932A
:1023E0009F93AF93BF93EF93FF93E0915104F091CC
:1023F0005204309709F00995FF91EF91BF91AF9189
:102400009F918F917F916F915F914F913F912F910C
:102410000F900FBE0F901F9018951F920F920FB63E
:102420000F9211242F933F934F935F936F937F935A
:102430008F939F93AF93BF93EF93FF93E0917504B6
:10244000F0917604309709F00995FF91EF91BF91D3
:10245000AF919F918F917F916F915F914F913F913C
:102460002F910F900FBE0F901F9018951F920F92F3
:102470000FB60F9211242F933F934F935F936F9357
:102480007F938F939F93AF93BF93EF93FF93E091CD
:102490007704F0917804309709F00995FF91EF9156
:1024A000BF91AF919F918F917F916F915F914F916C
:1024B0003F912F910F900FBE0F901F9018951F9274
:1024C0000F920FB60F9211242F933F934F935F9368
:1024D0006F937F938F939F93AF93BF93EF93FF93EC
:1024E000E0917304F0917404309709F00995FF911D
:1024F000EF91BF91AF919F918F917F916F915F917C
:102500004F913F912F910F900FBE0F901F901895F4
:102510001F920F920FB60F9211242F933F934F9358
:102520005F936F937F938F939F93AF93BF93EF933B
:10253000FF93E0917B04F0917C04309709F00995BA
:10254000FF91EF91BF91AF919F918F917F916F918B
:102550005F914F913F912F910F900FBE0F901F9061
:102560001895DC012C916150223039F4673068F401
:10257000E62FF0E0E056FD4F06C0693030F4E62F5C
:10258000F0E0E955FD4F208101C020E0DC011A9602
:10259000ED91FC911B978081887F822B8083089529
:1025A000CF93DF93EC016883613011F120F062304A
:1025B00009F06CC048C01B821A8286E490E09D83BB
:1025C0008C838EE690E09F838E8384E490E09987ED
:1025D000888785E490E09B878A871D861C8687E430
:1025E00090E09F878E87198A188A88E490E022C03D
:1025F0008FE690E09F838E8385E890E09B838A83BB
:1026000084E890E09D838C8380E890E099878887B8
:1026100081E890E09B878A8789E890E09D878C8796
:1026200088E890E09F878E878BE890E0998B888B75
:102630008AE890E09B8B8A8B1D8A1C8A1F8A1E8ADF
:1026400082E0898323C01B821A8282EB90E09D8303
:102650008C8380E790E09F838E8380EB90E0998766
:10266000888781EB90E09B878A871D861C8683EB99
:1026700090E09F878E87198A188A84EB90E09B8B65
:102680008A8B1D8A1C8A1F8A1E8A698360E0CE019C
:102690000E94B112EA81FB81309709F01082EC812F
:1026A000FD811082198E188E1B8E1A8E1D8E1C8E27
:1026B0001F8E1E8E19A218A2DF91CF91089551E0AE
:1026C000411101C050E06530F0F4E62FF0E0E05534
:1026D000FD4F408147FD17C0DC011696ED91FC913E
:1026E0001797808121E030E0042E01C0220F0A9468
:1026F000EAF720952823852F042E01C0880F0A941D
:10270000EAF7282B20830895623099F028F4662395
:1027100041F06130C9F409C0633079F06430A1F44C
:1027200010C0FC01518F408F0FC0FC01538F428FAE
:102730000BC0FC01558F448F07C0FC01578F468F9B
:1027400003C0FC0151A340A3452B11F440E003C09A
:10275000222319F041E00C945F130895DC011896D0
:10276000ED91FC9119973081262F23703C7F232B0C
:1027700020831A96ED91FC911B9780816C70660FF7
:10278000877E682B60830895FC018181681740F57E
:102790009081992311F0923011F4813049F0662331
:1027A00029F0613029F0623031F404C026E003C022
:1027B00024E001C022E00084F185E02D308183E037
:1027C00090E0022E01C0880F0A94EAF780958323D7
:1027D0004370022E01C0440F0A94EAF7842B8083D1
:1027E0000895FC0181816817F8F4611109C0A4857E
:1027F000B585109709F05C930684F785E02D13C02A
:10280000613049F4A089B189109709F05C9302887E
:10281000F389E02D08C0623039F4A489B5895C934E
:102820000688F789E02D4083089560E08DE794E005
:102830000E94D01261E08BE594E00E94D01262E029
:1028400089E394E00C94D01240D008F481E008951C
:10285000E89409C097FB3EF490958095709561953A
:102860007F4F8F4F9F4F9923A9F0F92F96E9BB27F0
:102870009395F695879577956795B795F111F8CF6C
:10288000FAF4BB0F11F460FF1BC06F5F7F4F8F4FD7
:102890009F4F16C0882311F096E911C0772321F0CD
:1028A0009EE8872F762F05C0662371F096E8862F65
:1028B00070E060E02AF09A95660F771F881FDAF7BC
:1028C000880F9695879597F90895990F0008550FE9
:1028D000AA0BE0E8FEEF16161706E807F907C0F0A6
:1028E00012161306E407F50798F0621B730B840BAE
:1028F000950B39F40A2661F0232B242B252B21F488
:1029000008950A2609F4A140A6958FEF811D811D27
:10291000089597F99F6780E870E060E008959FEF61
:1029200080EC089500240A94161617061806090666
:10293000089500240A941216130614060506089535
:10294000092E0394000C11F4882352F0BB0F40F4BD
:10295000BF2B11F460FF04C06F5F7F4F8F4F9F4FFD
:10296000089557FD9058440F551F59F05F3F71F07F
:102970004795880F97FB991F61F09F3F79F08795E6
:102980000895121613061406551FF2CF4695F1DF6F
:1029900008C0161617061806991FF1CF86957105FF
:1029A000610508940895E894BB2766277727CB0133
:1029B00097F908950BD0C4CFB5DF28F0BADF18F02F
:1029C000952309F0A6CFABCF1124EECFCADFA0F339
:1029D000959FD1F3950F50E0551F629FF001729FB4
:1029E000BB27F00DB11D639FAA27F00DB11DAA1FD3
:1029F000649F6627B00DA11D661F829F2227B00D20
:102A0000A11D621F739FB00DA11D621F839FA00DAA
:102A1000611D221F749F3327A00D611D231F849FFA
:102A2000600D211D822F762F6A2F11249F57504051
:102A30008AF0E1F088234AF0EE0FFF1FBB1F661FEC
:102A4000771F881F91505040A9F79E3F510570F0A5
:102A500060CFAACF5F3FECF3983EDCF38695779585
:102A60006795B795F795E7959F5FC1F7FE2B880FA0
:102A7000911D9695879597F9089597FB072E16F463
:102A8000009407D077FD09D00E948F1507FC05D070
:102A90003EF4909581959F4F0895709561957F4F75
:102AA0000895A1E21A2EAA1BBB1BFD010DC0AA1F8F
:102AB000BB1FEE1FFF1FA217B307E407F50720F0A7
:102AC000A21BB30BE40BF50B661F771F881F991F22
:102AD0001A9469F760957095809590959B01AC016B
:102AE000BD01CF010895052E97FB16F4009407D081
:102AF00057FD0DD00E94511507FC09D07EF490952A
:102B00008095709561957F4F8F4F9F4F0895509599
:102B10004095309521953F4F4F4F5F4F0895AA1B29
:102B2000BB1B51E107C0AA1FBB1FA617B70710F0B8
:102B3000A61BB70B881F991F5A95A9F780959095EA
:102B4000BC01CD010895EE0FFF1F0590F491E02D1B
:102B500009940F931F93CF93DF938230910510F464
:102B600082E090E0E091A104F091A20420E030E046
:102B7000C0E0D0E023C04081518148175907A8F038
:102B80004817590761F482819381209719F09B833C
:102B90008A832EC09093A2048093A10429C021159A
:102BA000310529F04217530710F0A90102C0BE01F8
:102BB000DF0102811381EF019A01F8013097D9F604
:102BC0002115310509F1281B390B2430310590F40A
:102BD00012968D919C9113976115710521F0FB015F
:102BE0009383828304C09093A2048093A104FD0187
:102BF000329644C0FD01E20FF31F8193919322505E
:102C000031092D933C933AC020919F043091A00448
:102C1000232B41F420910201309103013093A00451
:102C200020939F042091000130910101211531056D
:102C300041F42DB73EB74091040150910501241B8A
:102C4000350BE0919F04F091A004E217F307A0F484
:102C50002E1B3F0B2817390778F0AC014E5F5F4FF2
:102C60002417350748F04E0F5F1F5093A004409380
:102C70009F048193919302C0E0E0F0E0CF01DF91E7
:102C8000CF911F910F910895EF92FF920F931F9391
:102C9000CF93DF93009709F48FC0DC01129713964E
:102CA0001C921E921297E090A104F090A204E114ED
:102CB000F10489F42D913C911197280F391F8091CF
:102CC0009F049091A0048217930789F5B093A00404
:102CD000A0939F0471C0E70120E030E001C0EA0149
:102CE000CA17DB0738F44A815B819E014115510503
:102CF000B1F722C0BC0162507109FB01D383C283CA
:102D000000811181AC01400F511F4C175D0761F428
:102D100048815981400F511F4E5F5F4F518340835F
:102D20004A815B81538342832115310529F4B09395
:102D3000A204A093A10440C0F901B383A283E901D6
:102D400069917991C60FD71FAC17BD0779F4DC01E3
:102D50005E914E91460F571F4E5F5F4F51834083E8
:102D600012968D919C91139793838283A0E0B0E09B
:102D700002C0D7017C01F701828193810097C9F7D6
:102D8000C701029620813181820F931F20919F04F9
:102D90003091A0042817390779F4109729F410927C
:102DA000A2041092A10404C013961C921E921297C2
:102DB000F092A004E0929F04CDB7DEB7E6E00C9459
:102DC0001E1BA0E0B0E0E7EEF6E10C94FC1AEC016B
:102DD000009729F4CB010E94A915EC01B8C0DC01D1
:102DE000A60FB71FFC013297AE17BF0718F4C0E05B
:102DF000D0E0ADC00081118106171707B0F0053093
:102E0000110508F4A4C0C80104978617970708F4B1
:102E10009EC002501109061B170B0D931D93718361
:102E20006083CD010E94441692C07B01E01AF10A32
:102E30005C01A00EB11EE091A104F091A204812CCE
:102E4000912C80E090E04CC0EA15FB05F1F5408143
:102E500051816A0122E0C20ED11CCE14DF04A8F118
:102E60009A012E193F097901690132E0C30ED11C84
:102E70002EEFA22EBB24BA94AC0EBD1E25E0C216C6
:102E8000D10478F04281538113965C934E9312974C
:102E90001196FC92EE92F501718360833A2F2B2FED
:102EA00009C00E5F1F4F040F151FD5010D931C9312
:102EB00032812381009721F0FC013283238347C0B4
:102EC0003093A1042093A20442C08081918188168E
:102ED000990608F44C0152814381CF01E52FF42F6C
:102EE000309709F0B1CF80919F049091A0048A158A
:102EF0009B05F1F486169706D8F480910001909115
:102F00000101009741F48DB79EB7209104013091E3
:102F10000501821B930BA817B90708F068CFB0937F
:102F2000A004A0939F04FE013297718360830FC0B9
:102F3000CB010E94A9157C01009709F458CFA80184
:102F4000BE010E94D417CE010E944416E701CE01B3
:102F5000CDB7DEB7ECE00C94181B1F93FC0199274A
:102F60008827BC01E89411911032E9F3193010F070
:102F70001E30C8F31B3251F01D3249F4689406C06C
:102F80000E941D18610F711D811D911D119110531B
:102F90001A30B0F33EF490958095709561957F4F0F
:102FA0008F4F9F4F1F910895FB01DC0102C00190DC
:102FB0000D9241505040D8F70895FB01DC018D91EE
:102FC000019080190110D9F3990B0895FB01DC01E0
:102FD00001900D920020E1F70895FB01DC014150C2
:102FE000504048F001900D920020C9F701C01D9299
:102FF00041505040E0F70895FB019F01E8944230B2
:10300000C4F04532B4F44A3029F497FB1EF490958D
:1030100081959F4F642F77270E948F15805D8A339B
:103020000CF0895D8193CB010097A1F716F45DE266
:1030300051931082C9010C945C1A592F482F372FD5
:10304000262F660F771F881F991F660F771F881F0F
:10305000991F620F731F841F951F660F771F881FAC
:10306000991F0895AEE0B0E0E8E3F8E10C94041B8A
:103070000D891E8986E08C831A8309838FEF9FE771
:103080009E838D83CE014996AC016F89788DCE01E8
:1030900001960E945418EF81F885E00FF11F10820D
:1030A0002E96E4E00C94201BACE0B0E0EAE5F8E1F9
:1030B0000C94F61A7C016B018A01FC0117821682BE
:1030C000838181FFC6C188248394912C8C0E9D1E20
:1030D000F7019381F60193FD859193FF81916F0133
:1030E000882309F4B2C1853239F493FD859193FFA9
:1030F00081916F01853229F4B70190E00E946C1A2A
:10310000E7CF512C312C20E02032A8F48B3261F033
:1031100028F4803251F0833271F40BC08D3239F0D3
:10312000803349F4216028C02260246025C02860D3
:1031300023C0206121C027FD27C0382F30533A30EB
:1031400078F426FF06C0FAE05F9E300D1124532E5E
:1031500013C08AE0389E300D1124332E20620CC03B
:103160008E3221F426FD71C1206406C08C3611F424
:10317000206802C0883641F4F60193FD859193FFE3
:1031800081916F018111C0CF982F9554933018F021
:103190009052933028F40C5F1F4FFFE3F9830DC06A
:1031A000833631F0833771F0833509F05EC023C078
:1031B000F801808189830E5F1F4F44244394512C72
:1031C000540115C03801F2E06F0E711CF801A080A7
:1031D000B18026FF03C0652D70E002C06FEF7FEF66
:1031E000C5012C870E94511A2C0183012C856FE7A1
:1031F000262E222218C03801F2E06F0E711CF80151
:10320000A080B18026FF03C0652D70E002C06FEF83
:103210007FEFC5012C870E94461A2C012C8550E8AF
:10322000252E222A830123FC1CC006C0B70180E2A0
:1032300090E00E946C1A3A94832D90E0481659064B
:10324000A8F30FC0F50127FC859127FE81915F014E
:10325000B70190E00E946C1A31103A94F1E04F1AD5
:1032600051084114510471F7EDC0843611F08936CC
:1032700041F5F80127FF07C0608171818281938148
:103280000C5F1F4F08C060817181882777FD809592
:10329000982F0E5F1F4F4FE6B42EB22297FF09C042
:1032A00090958095709561957F4F8F4F9F4FF0E877
:1032B000BF2A2AE030E0A4010E94981AA82EA8187C
:1032C00043C0853731F43FEEB32EB2222AE030E01E
:1032D00024C099EFB92EB2228F36B9F020F4883588
:1032E00009F0B3C00DC0803721F0883709F0ADC0B8
:1032F00002C020E1B22AB4FE0BC084E0B82A08C0A4
:1033000024FF09C0E6E0BE2A06C028E030E005C080
:1033100020E130E002C020E132E0F801B7FE07C052
:1033200060817181828193810C5F1F4F06C0608133
:10333000718180E090E00E5F1F4FA4010E94981AF7
:10334000A82EA818FFE7BF22B6FE0BC02B2D2E7F9C
:10335000A51450F4B4FE0AC0B2FC08C02B2D2E7E7A
:1033600005C07A2C2B2D03C07A2C01C0752C24FFAC
:103370000DC0FE01EA0DF11D8081803311F4297E1C
:1033800009C022FF06C07394739404C0822F86780C
:1033900009F0739423FD14C020FF0FC05A2C73143E
:1033A00060F4530C5718732C08C0B70180E290E00A
:1033B0002C870E946C1A73942C857314B0F304C08C
:1033C000731410F4371801C0312C24FF12C0B70158
:1033D00080E390E02C870E946C1A2C8522FF1EC08F
:1033E00021FF03C088E590E002C088E790E0B701C4
:1033F0000CC0822F867891F021FD02C080E201C0CE
:103400008BE227FD8DE2B70190E00E946C1A06C0A6
:10341000B70180E390E00E946C1A5A94A514C0F39F
:10342000AA94F401EA0DF11DB701808190E00E9499
:103430006C1AA110F5CF06C0B70180E290E00E949F
:103440006C1A3A943110F8CF43CEF70126813781B8
:1034500002C02FEF3FEFC9012C96E2E10C94121B42
:10346000F999FECF92BD81BDF89A992780B508954C
:10347000262FF999FECF1FBA92BD81BD20BD0FB690
:10348000F894FA9AF99A0FBE01960895FC010590F6
:10349000615070400110D8F7809590958E0F9F1F56
:1034A0000895FC016150704001900110D8F780959B
:1034B00090958E0F9F1F0895DC01FC01672F71917D
:1034C0007723E1F7329704C07C916D93708362910A
:1034D000AE17BF07C8F308950F931F93CF93DF93E1
:1034E0008C01EB018B8181FD03C00FEF1FEF1AC030
:1034F00082FF0DC02E813F818C819D812817390765
:1035000064F4E881F9810193F983E88306C0E885D2
:10351000F985802F0995892B41F78E819F8101962E
:103520009F838E83C801DF91CF911F910F910895E2
:10353000FA01AA27283051F1203181F1E8946F93E4
:103540006E7F6E5F7F4F8F4F9F4FAF4FB1E03ED08A
:10355000B4E03CD0670F781F891F9A1FA11D680F28
:10356000791F8A1F911DA11D6A0F711D811D911D5B
:10357000A11D20D009F468943F912AE0269F1124D0
:103580003019305D3193DEF6CF010895462F477034
:10359000405D4193B3E00FD0C9F7F6CF462F4F708F
:1035A000405D4A3318F0495D31FD4052419302D0ED
:1035B000A9F7EACFB4E0A695979587957795679593
:1035C000BA95C9F700976105710508959B01AC0193
:1035D0000A2E06945795479537952795BA95C9F7BA
:1035E000620F731F841F951FA01D08952F923F9295
:1035F0004F925F926F927F928F929F92AF92BF9203
:10360000CF92DF92EF92FF920F931F93CF93DF93AE
:10361000CDB7DEB7CA1BDB0B0FB6F894DEBF0FBE0B
:10362000CDBF09942A88398848885F846E847D8458
:103630008C849B84AA84B984C884DF80EE80FD805A
:103640000C811B81AA81B981CE0FD11D0FB6F894D0
:10365000DEBF0FBECDBFED01089510E0C2E8D0E09F
:1036600004C0FE010E94A5152296C438D107C9F7EF
:04367000F894FFCFFC
:103674000000A30420000E000F000504030908073E
:10368400063132333435363738392A302301015381
:10369400652061677265676172C3A1206C612063F4
:1036A4006C6176650053652061637475616C697A39
:1036B4006172C3A1206C6120636C6176650025642E
:1036C40000536520626F72726172C3A1206C612025
:1036D400636C61766500536520626F72726172C3B8
:1036E400A16E20746F646173206C617320636C61DC
:1036F4007665730053652076616C69646120656E3C
:103704007472616461004E004144445F50415353FC
:10371400574F5244005550444154455F5041535310
:10372400574F52440044454C4554455F5041535310
:10373400574F52440044454C4554455F414C4C5FFF
:1037440050415353574F52445300434F4D504152ED
:10375400455F50415353574F52440056414C4944DE
:103764005F454E545259004842002A0023004174D8
:1037740074656D70742064656C657465640056418D
:103784004C49445F454E5452593B00537973746518
:103794006D206C6F636B65640053797374656D2081
:1037A400756E6C6F636B656400446F6F72206F702D
:1037B400656E656420746F6F206D7563682074692D
:1037C4006D65004D6F74696F6E2064657465637414
:1037D4006564004D6F74696F6E20656E6465640086
:1037E4004C4F5720424154544552590000000000A8
:1037F4003E0A850DF009F5091B0A090A00000000BC
:10380400160A960A9C0A00000000110A8A0A900A05
:10381400010203040506070102000300040506076C
:0638240000010203050093
:00000001FF
