:100000000C9442000C946A000C946A000C946A00F0
:100010000C946A000C946A000C946A000C946A00B8
:100020000C946A000C94450C0C946E0C0C94970C78
:100030000C943B0D0C94C00C0C94E90C0C94120D18
:100040000C94CA0B0C94F30B0C941C0C0C946A00CB
:100050000C94E0080C9493060C946A000C946A00CB
:100060000C946A000C946A000C946A000C946A0068
:100070000C94B5080C94E1060C946A0034030B0947
:10008000C80E630311241FBECFEFD0E1DEBFCDBF8A
:1000900012E0A0E0B1E0ECE6F3E202C005900D92C0
:1000A000AC32B107D9F713E0ACE2B2E001C01D9267
:1000B000A53AB107E1F710E0C2E8D0E004C022970A
:1000C000FE010E94170FCC37D107C9F70E94DA054D
:1000D0000C94A9110C94000089E392E00E94070A95
:1000E00083E792E00E94070A8CE692E00E94070AEA
:1000F00085E692E00E94070A8EE592E00C94070ADA
:100100000F931F93CF93DF93EB018A0142E0BC0171
:100110008DE00E94150942E0BE018CE00E941509A5
:1001200042E0B8018AE0DF91CF911F910F910C94CA
:1001300015090F931F93CF93DF93CDB7DEB72E979B
:100140000FB6F894DEBF0FBECDBF8091350281118E
:1001500008C080E492E00E947B03882309F449C030
:1001600007C06DE171E08FED92E00E94F309FFCFCF
:10017000682FCE0108960E94DD0ABE01685F7F4F9E
:1001800089E392E00E94220BCE0108960E94070AA2
:1001900069E372E08FED92E00E94DF0920913D0259
:1001A00030913E02809162029091630228173907D4
:1001B00001F56EE572E089E392E00E94700B811117
:1001C000BCC165E672E089E392E00E94700B811188
:1001D000B4C16CE672E089E392E00E94700B811179
:1001E000ACC163E772E089E392E00E94700B811179
:1001F000A4C180913702882361F169E371E0CE01E7
:1002000008960E94780ABE01685F7F4F89E392E0FA
:100210000E94810B182FCE0108960E94070A112315
:10022000C1F04FEF50E060E070E080E090E00E94AD
:10023000800010923802109237026BE371E08FED6C
:1002400092E00E94F3096DE671E089E392E00E947A
:10025000950A67E471E0CE0108960E94780ABE0113
:10026000685F7F4F89E392E00E94810B882361F0F1
:1002700011E020913D0230913E0280916202909106
:1002800063028217930708F410E0CE0108960E94DB
:10029000070A112361F06DE671E089E392E00E94A4
:1002A000950A69E471E08FED92E00E94F3092091D4
:1002B0003D0230913E0280916202909163022817C4
:1002C000390709F05FC06EE572E089E392E00E94B1
:1002D000700B81113DC165E672E089E392E00E94F6
:1002E000700B811135C16CE672E089E392E00E94E7
:1002F000700B81112DC163E772E089E392E00E94E7
:10030000700B811125C13AC140E050E060E070E01F
:100310008FEF90E00E94800068EE73E080E090E054
:100320000E9438054FEF50E060E070E080E090E020
:100330000E9480006DE671E089E392E00E94950AD8
:100340004AE060913602CE0108960E94AF0A69E544
:1003500071E0CE0101960E94780ABE01685F7F4F6E
:10036000CE0101960E94290BBC018FED92E00E9404
:10037000DF09CE0101960E94070ACE0108960E946D
:10038000070A11C08217930770F440E050E06FEF46
:1003900070E080E090E00E9480006EE671E08FEDFA
:1003A00092E00E94F30980913602833050F16DE6AD
:1003B00071E089E392E00E94950A109236026CE7A0
:1003C00071E08FED92E00E94F30940E050E060E0C0
:1003D00070E08FEF90E00E94800060E375E780E0BE
:1003E00090E00E9438056AE871E08FED92E00E948B
:1003F000F3094FEF50E060E070E080E090E00E9491
:10040000800080913402811108C0339B38C08091F4
:100410003702882309F4BBC032C0339B1EC00E9440
:100420002605009130021091310220913202309164
:100430003302601B710B820B930B60337547810590
:100440009105E8F040E050E060E070E08FEF90E070
:100450000E9480006AE971E00EC04FEF50E060E05A
:1004600070E080E090E00E948000109238021092CC
:10047000340264EB71E08FED92E00E94F309809109
:100480003702882309F10E9426050091300210915D
:1004900031022091320230913302601B710B820BCA
:1004A000930B603375478105910570F040E050E093
:1004B00060E070E08FEF90E00E9480006AE971E0F8
:1004C0008FED92E00E94F309809106010E94880559
:1004D00080932E0210922F02682F809108010E94B3
:1004E000AC0500912E0210912F0280912C02909168
:1004F0002D020130110599F4892B51F462EC71E061
:100500008FED92E00E94F30910932D0200932C02CC
:1005100064E670E080E090E00E94380554C00197E6
:1005200009F051C062ED71E08FED92E00E94F30995
:1005300010922D0210922C0246C00E942605609354
:10054000300270933102809332029093330251CE85
:1005500081E080933802809337026EE671E08FED80
:1005600092E00E94F30940E050E06FEF70E080E01D
:1005700090E00E9480001092360215CF80913602E2
:100580008F5F80933602833009F0BECED3CE0E94B7
:10059000260560933002709331028093320290936B
:1005A000330211E01093340240E050E06FEF70E04E
:1005B00080E090E00E948000109338021092360292
:1005C0006EE671E058CF2E960FB6F894DEBF0FBEE0
:1005D000CDBFDF91CF911F910F910895EF920F93AF
:1005E000E12C01E028E040E855E260E070E08FEDAA
:1005F00092E00E94B3076DE671E089E392E00E9409
:10060000950A10923802109236021092350228E0B4
:1006100040E855E260E070E08FED92E00E94B307A1
:10062000109234023D9A3C9A3A9A3B984FEF50E030
:1006300060E070E080E090E00E94800061E08091E6
:1006400008010E945A0560E0809106010E945A0547
:1006500028E040E855E260E070E08FED92E00E9413
:10066000B3070F91EF900895EF920F936FED71E044
:100670008EE592E00E94780A64EE71E085E692E0F1
:100680000E94780A69EE71E08CE692E00E94780A96
:100690006EEE71E083E792E00E94780A83E0E82E34
:1006A00004E02AE031E04DE051E061E171E080E4F6
:1006B00092E00E94C5046DE671E089E392E00F913B
:1006C000EF900C94780A0C946C00DC0118968D91D4
:1006D0009C9119978617970769F019967C936E93EA
:1006E00018975C96ED91FC915D97309719F01A96EA
:1006F0008C91099408954F925F926F927F92AF927E
:10070000BF92CF92DF92EF92FF920F931F93CF93FE
:10071000DF93EC01A12CA8C00A2D10E0EC81FD8133
:10072000E00FF11F60E080810E94AC05B12C6801F0
:100730008EC0EB2CF12C8F81E881F981EC0DFD1D31
:10074000B89EE00DF11D11249A85808198133CC05C
:100750000E9426054E845F8468887988641975092B
:10076000860997094A8C5B8C612C712C6415750580
:100770008605970550F0EA81FB81EE0DFF1D808113
:100780000E948805882309F498C00E9426054E849B
:100790005F84688879886419750986099709488C87
:1007A000598C612C712C641575058605970508F424
:1007B00093C0EA81FB81EB0DF11D80810E948805C9
:1007C000813009F089C07FC00E9426054E845F8475
:1007D000688879886419750986099709488C598C45
:1007E000612C712C641575058605970578F1EA81F1
:1007F000FB81EE0DFF1D80810E948805811126C0BE
:10080000EC81FD81E00FF11F61E080810E94AC0569
:100810002F812E9DC0012F9D900D1124E881F9811B
:10082000EC0DFD1DE80FF91FF0808E859F85A889CE
:10083000B9898A8B9B8BAC8BBD8B0E9426056E87FA
:100840007F87888B998BF11015C005C0B3948E817A
:10085000B81608F46ECFEC81FD81E00FF11F61E066
:1008600080810E94AC05A3948F81A81608F454CF10
:1008700080E040C08B85F81239C00E9426050A89A5
:100880001B892C893D89601B710B820B930B0E8990
:100890001F8920E030E0061717072807390710F5F1
:1008A00025C081E090E09D878C87FA8661E070E04A
:1008B000CE010E9465038A851DC063E070E0CE0111
:1008C0000E94650362CF62E070E0CE010E94650382
:1008D0008A858B871A86BFCF88859985039709F00B
:1008E000B5CFB9CF8C859D850196DDCF8A85F8126D
:1008F000D8CFBECFDF91CF911F910F91FF90EF9096
:10090000DF90CF90BF90AF907F906F905F904F90AF
:100910000895FF920F931F93CF93DF93EC01F12C77
:1009200013C00F2D10E0EA81FB81E00FF11F60E0A2
:1009300080810E945A05EA81FB81E00FF11F61E08E
:1009400080810E94AC05F3948E81F81650F3F12C4F
:1009500013C00F2D10E0EC81FD81E00FF11F61E06D
:1009600080810E945A05EC81FD81E00FF11F61E05A
:1009700080810E94AC05F3948F81F81650F3DF91CB
:10098000CF911F910F91FF900895EF920F93FC016B
:1009900053834283358324830683E7827183608394
:1009A00016861786108A118A128A138A148A158A63
:1009B0008CE291E0978B868B82E390E0918F808F21
:1009C00088EE93E0938F828F158E148E1286138695
:1009D0001186108615861486CF010F91EF900C9426
:1009E000890480917B0290917C02A0917D02B0915C
:1009F0007E0230917A02232F2D5F2D3720F401964D
:100A0000A11DB11D05C0232F2A570296A11DB11D9E
:100A100020937A0280937B0290937C02A0937D02C4
:100A2000B0937E0280917F0290918002A09181021A
:100A3000B09182020196A11DB11D80937F02909317
:100A40008002A0938102B093820208950F931F93B6
:100A50008FB7F89400917B0210917C0220917D0267
:100A600030917E028FBFB801C9011F910F91089587
:100A70008F929F92AF92BF92CF92DF92EF92FF92AE
:100A80006B017C010E9426054B015C010E9426053A
:100A9000681979098A099B096C157D058E059F05E2
:100AA000A8F3FF90EF90DF90CF90BF90AF909F9012
:100AB0008F900895982F977021E030E0092E01C0A3
:100AC000220F0A94EAF786958695869581F0813003
:100AD00089F0823091F08330D1F412C0808120956A
:100AE000822302C08081822B80839FBF0895EAE227
:100AF000F0E008C0E7E2F0E005C0E4E2F0E002C0A8
:100B0000E1E2F0E09FB7F894662341F3EBCF08955C
:100B1000982F977021E030E001C0220F9A95EAF7F4
:100B200086958695869539F0813041F0823049F07E
:100B3000833051F00895E9E2F0E008C0E6E2F0E029
:100B400005C0E3E2F0E002C0E0E2F0E09081922331
:100B500081E009F480E00895982F977021E030E05B
:100B6000092E01C0220F0A94EAF78695869586958C
:100B700081F0813089F0823091F08330D1F412C05D
:100B800080812095822302C08081822B80839FBF39
:100B90000895EBE2F0E008C0E8E2F0E005C0E5E22D
:100BA000F0E002C0E2E2F0E09FB7F894662341F380
:100BB000EBCF08950E94A20B0E94EE020E949900C2
:100BC000FDCFFC0120893189C9010895DC015096CF
:100BD0002D913C915197232B49F05496ED91FC9126
:100BE0005597E80FF91F268930E002C02FEF3FEF3D
:100BF000C9010895FC01118A108A158A148A138A82
:100C0000128A0895FC0124813581C9010895FC01EF
:100C100024813581C9010895FC0180899189892B3E
:100C2000D1F03FB7F894808991890197918B808B9F
:100C300084899589DF01A80FB91F56962C910196DA
:100C4000803291051CF4958B848B02C0158A148A1E
:100C50003FBF30E002C02FEF3FEFC9010895EF9290
:100C6000FF921F93CF93DF931F92CDB7DEB77C0126
:100C7000D701DA968D919C91DB974097C8F71FB703
:100C8000F894D696ED91FC91D7970190F081E02DE4
:100C9000C701C6966983099569814097C8F4F70131
:100CA00082AD93AD019693AF82AF84AD95ADE80F61
:100CB000F91FE05CFF4F60830196D701DD969C939E
:100CC0008E93DC97409724F0DD961C921E92DC9761
:100CD000F701EA5AFF4F0190F081E02D8081806298
:100CE00080831FBF81E090E00F90DF91CF911F9133
:100CF000FF90EF900895665F7F4F680F791FCB01DB
:100D00000895665F7F4F680F791FCB010895665F76
:100D10007F4F680F791FCB010895665F7F4F680F83
:100D2000791FCB0108951F920F920FB60F921124D5
:100D30002F938F939F93AF93BF93EF93FF938091E4
:100D4000190390911A03892B21F1E0913903F09155
:100D50003A038091190390911A03019790931A0313
:100D60008093190380911D0390911E03DC01AB5EFB
:100D7000BC4F1A962C910196803191052CF49093DA
:100D80001E0380931D0304C010921E0310921D03C6
:100D900020838091190390911A03892B31F4E091FB
:100DA0003503F091360388E98083FF91EF91BF917D
:100DB000AF919F918F912F910F900FBE0F901F9029
:100DC00018951F920F920FB60F9211242F938F93A5
:100DD0009F93AF93BF93EF93FF938091BD02909148
:100DE000BE02892B21F1E091DD02F091DE028091BB
:100DF000BD029091BE0201979093BE028093BD0206
:100E00008091C1029091C202DC01A754BD4F1A9695
:100E10002C910196803191052CF49093C20280931D
:100E2000C10204C01092C2021092C10220838091BC
:100E3000BD029091BE02892B31F4E091D902F0916C
:100E4000DA0288E98083FF91EF91BF91AF919F9182
:100E50008F912F910F900FBE0F901F901895FC014E
:100E6000262F1382128248EE53E060E070E0448344
:100E700055836683778387EF91E09183808387E052
:100E800092E09587848780E290E097878687118A31
:100E9000108A158A148A138A128A81E192E097AB2C
:100EA00086AB80E190E091AF80AF13AE12AE17AE8B
:100EB00016AE15AE14AE222321F0213009F052C037
:100EC00028C0DF01A05BBF4F85EC90E08D939C9321
:100ED000DF01AE5ABF4F84EC90E08D939C93DF010D
:100EE000AC5ABF4F80EC90E08D939C93DF01AA5ADF
:100EF000BF4F81EC90E08D939C93DF01A85ABF4FC8
:100F000082EC90E08D939C93E65AFF4F86EC90E044
:100F100027C0DF01A05BBF4F8DEC90E08D939C93C9
:100F2000DF01AE5ABF4F8CEC90E08D939C93DF01B4
:100F3000AC5ABF4F88EC90E08D939C93DF01AA5A86
:100F4000BF4F89EC90E08D939C93DF01A85ABF4F6F
:100F50008AEC90E08D939C93E65AFF4F8EEC90E0E4
:100F60009183808308953F924F925F926F927F9218
:100F70008F929F92AF92BF92CF92DF92EF92FF92A9
:100F80000F931F93CF93DF93EC014A015B01122F64
:100F90003E2C60E072E18AE790E0A50194010E9496
:100FA000D70E69017A0184E0C80ED11CE11CF11C46
:100FB00083E0F694E794D794C7948A95D1F760E0DC
:100FC00074E284EF90E0A50194010E94D70E2901FC
:100FD0003A0194E0490E511C611C711C93E0769417
:100FE0006794579447949A95D1F7A30192014427A7
:100FF000552760E874E88EE190E00E94F90E5901EF
:10100000A818B908B7FE03C0B194A194B108A7010C
:1010100096014427552760E472E48FE090E00E9437
:10102000F90E2819390937FF03C031952195310987
:10103000FE01EC5AFF4F0190F081E02DA216B3069D
:101040003CF482E08083620181E0C81AD10804C0C8
:10105000108291E0C91AD1081630C1F018F4153089
:1010600099F405C0173029F0193071F404C080E0FC
:101070000EC084E00CC0FE01EA5AFF4F0190F081DF
:10108000E02D80818460808386E001C082E00230B0
:1010900009F4886091E0391621F092E0391204C019
:1010A00002C0806301C08062FE01E85AFF4F0190D8
:1010B000F081E02D8083FE01E05BFF4F0190F08125
:1010C000E02DD082FE01EE5AFF4F0190F081E02D1D
:1010D000C082CA5ADF4FE881F98188E98083DF91B5
:1010E000CF911F910F91FF90EF90DF90CF90BF9025
:1010F000AF909F908F907F906F905F904F903F90B8
:1011000008950F931F93CF93DF931F92CDB7DEB750
:101110008C01DC01ED91FC910190F081E02D69835F
:10112000099569818097D0F4F801848195810196B1
:101130009583848386819781E80FF91F62870196E2
:101140008032910534F4D80117969C938E931697AC
:1011500003C0F8011782168281E001C080E00F9081
:10116000DF91CF911F910F9108951F920F920FB6AB
:101170000F9211242F933F934F935F936F937F931D
:101180008F939F93AF93BF93EF93FF93E091DD0213
:10119000F091DE0260818FE892E00E948108FF9169
:1011A000EF91BF91AF919F918F917F916F915F91DF
:1011B0004F913F912F910F900FBE0F901F90189558
:1011C0001F920F920FB60F9211242F933F934F93BC
:1011D0005F936F937F938F939F93AF93BF93EF939F
:1011E000FF93E0913903F0913A0360818BEE92E036
:1011F0000E948108FF91EF91BF91AF919F918F91D4
:101200007F916F915F914F913F912F910F900FBE02
:101210000F901F90189560E08FED92E00E942F07CD
:1012200061E083E892E00C942F071F93CF93DF9344
:10123000182FEB01209721F460E00E94AC0540E0FC
:10124000143079F1153029F11630E9F1173099F1A0
:10125000133169F0143109F044C011C060E001C0DD
:1012600061E0812FDF91CF911F910C94AC0560E07C
:101270008FE793E00E94770EAE0160E007C061E067
:101280008FE793E00E94770EAE0161E08FE793E075
:1012900023C060E08DE593E00E94770EAE0160E030
:1012A00007C061E08DE593E00E94770EAE0161E03A
:1012B0008DE593E011C060E08BE393E00E94770E30
:1012C000AE0160E007C061E08BE393E00E94770E1F
:1012D000AE0161E08BE393E0DF91CF911F910C941D
:1012E000A40EC038D10508F4B9CFBACFCF92DF929F
:1012F000EF92FF920F931F93CF93DF936C01EB015B
:101300007A01E60EF71E00E010E00BC06991D601ED
:10131000ED91FC910190F081E02DC6010995080F37
:10132000191FCE15DF0591F7C801DF91CF911F91ED
:101330000F91FF90EF90DF90CF90089561157105A8
:1013400081F0DB010D900020E9F7AD01415051091A
:10135000461B570BDC01ED91FC910280F381E02DDF
:10136000099480E090E00895DC01ED91FC910190FA
:10137000F081E02D0994DC01ED91FC91DB011496E4
:101380004D915C9115976D917C910280F381E02DD8
:1013900009940F931F93CF93DF93EC016DE00E94AC
:1013A000B4098C016AE0CE010E94B4099C01200FAF
:1013B000311FC901DF91CF911F910F9108950F93B4
:1013C0001F93CF93DF93EC010E94BB098C01CE01E8
:1013D0000E94C9099C01200F311FC901DF91CF91E3
:1013E0001F910F9108950F931F93CF93DF93EC01FB
:1013F0000E949E098C01CE010E94C9099801280F04
:10140000391FC901DF91CF911F910F910895FC0100
:10141000808191810C94B60FCF93DF93EC0188818A
:101420009981009711F00E94B60F198218821D82CF
:101430001C821B821A82DF91CF9108950F931F9314
:10144000CF93DF93EC018B016F5F7F4F8881998190
:101450000E945310009731F0998388831B830A837D
:1014600081E001C080E0DF91CF911F910F9108953D
:10147000CF93DF93EC0188819981892B31F08A81A8
:101480009B818617970708F00CC0CE010E941E0AA8
:10149000882349F08C819D81892B19F4E881F98199
:1014A000108281E001C080E0DF91CF910895EF923A
:1014B000FF920F931F93CF93DF93EC017B018A017F
:1014C000BA010E94380A811104C0CE010E940C0AA0
:1014D00007C01D830C83B701888199810E94311157
:1014E000CE01DF91CF911F910F91FF90EF90089562
:1014F000DC0111961C921E9213961C921E9212975A
:1015000015961C921E92149716961C9261157105E1
:1015100059F0DB010D900020E9F7AD014150510970
:10152000461B570B0C94570A0895CF93DF93D82F7F
:10153000C92F6115710561F0DB010D900020E9F7FD
:10154000AD0141505109461B570B0E94570A02C07A
:101550000E940C0A8D2F9C2FDF91CF9108950F933D
:101560001F93CF93DF93CDB7DEB729970FB6F894CB
:10157000DEBF0FBECDBF8C01862FF8011182108215
:101580001382128215821482168250E0BE016F5FB0
:101590007F4F90E00E943811BE016F5F7F4FC801FE
:1015A0000E94950A29960FB6F894DEBF0FBECDBFF4
:1015B000DF91CF911F910F910895CF93DF9300D0CA
:1015C000CDB7DEB7FC011182108213821282158220
:1015D0001482168269831A82BE016F5F7F4F0E9458
:1015E000950A0F900F90DF91CF910895EF92FF929F
:1015F0000F931F93CF93DF93EC017B010C811D812F
:101600006115710511F480E016C04115510591F086
:10161000040F151FB8010E94380A8823A1F32881FE
:1016200039818C819D81B701820F931F0E943111F6
:101630001D830C8381E0DF91CF911F910F91FF906B
:10164000EF900895FB0144815581608171810C9474
:10165000F60ACF93DF93D82FC92FFB014481558120
:10166000608171810E94F60A811104C08D2F9C2F28
:101670000E940C0A8D2F9C2FDF91CF910895CF935C
:10168000DF93DC01ED91FC91EB01A881B9813097EA
:1016900011F01097C9F4109759F0EB012C813D819E
:1016A000232B31F02C9130E031952195310914C074
:1016B000309781F0DC0114968D919C911597892BC0
:1016C00049F0208130E008C0BD01CF01DF91CF910A
:1016D0000C94281120E030E0C901DF91CF910895EA
:1016E000FC0144815581FB01248135814217530758
:1016F00029F40E943F0B21E0892B09F020E0822F82
:101700000895FC0184819581DB0114964D915C91D3
:10171000159784179507A0F0208131812115310597
:1017200079F06D917C916115710551F0841B950BD9
:10173000820F931F0E9428119C0181E0232B09F046
:1017400080E0089563E08FE793E00E94610E21E05E
:1017500041EF54E060E08FE793E00E94370E64E0D1
:101760008FE793E00E94640D61E08DE593E00E94B5
:10177000610E64E08DE593E00E94640D61E08BE30F
:1017800093E00E94610E64E08BE393E00E94640D9D
:10179000789408951F920F920FB60F9211242F93F1
:1017A0003F934F935F936F937F938F939F93AF93E9
:1017B000BF93EF93FF93E0919903F0919A033097D1
:1017C00009F00995FF91EF91BF91AF919F918F9192
:1017D0007F916F915F914F913F912F910F900FBE2D
:1017E0000F901F9018951F920F920FB60F92112411
:1017F0002F933F934F935F936F937F938F939F9319
:10180000AF93BF93EF93FF93E0919B03F0919C0301
:10181000309709F00995FF91EF91BF91AF919F919A
:101820008F917F916F915F914F913F912F910F9089
:101830000FBE0F901F9018951F920F920FB60F9228
:1018400011242F933F934F935F936F937F938F93C5
:101850009F93AF93BF93EF93FF93E0919703F09122
:101860009803309709F00995FF91EF91BF91AF91DF
:101870009F918F917F916F915F914F913F912F91A8
:101880000F900FBE0F901F9018951F920F920FB6DA
:101890000F9211242F933F934F935F936F937F93F6
:1018A0008F939F93AF93BF93EF93FF93E091550373
:1018B000F0915603309709F00995FF91EF91BF9190
:1018C000AF919F918F917F916F915F914F913F91D8
:1018D0002F910F900FBE0F901F9018951F920F928F
:1018E0000FB60F9211242F933F934F935F936F93F3
:1018F0007F938F939F93AF93BF93EF93FF93E09169
:101900005703F0915803309709F00995FF91EF9133
:10191000BF91AF919F918F917F916F915F914F9107
:101920003F912F910F900FBE0F901F9018951F920F
:101930000F920FB60F9211242F933F934F935F9303
:101940006F937F938F939F93AF93BF93EF93FF9387
:10195000E0915303F0915403309709F00995FF91FA
:10196000EF91BF91AF919F918F917F916F915F9117
:101970004F913F912F910F900FBE0F901F90189590
:101980001F920F920FB60F9211242F933F934F93F4
:101990005F936F937F938F939F93AF93BF93EF93D7
:1019A000FF93E0917703F0917803309709F0099560
:1019B000FF91EF91BF91AF919F918F917F916F9127
:1019C0005F914F913F912F910F900FBE0F901F90FD
:1019D00018951F920F920FB60F9211242F933F93D9
:1019E0004F935F936F937F938F939F93AF93BF9327
:1019F000EF93FF93E0917903F0917A03309709F028
:101A00000995FF91EF91BF91AF919F918F917F9138
:101A10006F915F914F913F912F910F900FBE0F905B
:101A20001F9018951F920F920FB60F9211242F93AB
:101A30003F934F935F936F937F938F939F93AF9356
:101A4000BF93EF93FF93E0917503F0917603309786
:101A500009F00995FF91EF91BF91AF919F918F91FF
:101A60007F916F915F914F913F912F910F900FBE9A
:101A70000F901F9018951F920F920FB60F9211247E
:101A80002F933F934F935F936F937F938F939F9386
:101A9000AF93BF93EF93FF93E0917D03F0917E03AB
:101AA000309709F00995FF91EF91BF91AF919F9108
:101AB0008F917F916F915F914F913F912F910F90F7
:101AC0000FBE0F901F901895DC012C9161502230B1
:101AD00039F4673068F4E62FF0E0E95EFD4F06C0A8
:101AE000693030F4E62FF0E0E25EFD4F208101C066
:101AF00020E0DC011A96ED91FC911B978081887F94
:101B0000822B80830895CF93DF93EC01688361304B
:101B100011F120F0623009F06CC048C01B821A82BB
:101B200086E490E09D838C838EE690E09F838E8395
:101B300084E490E09987888785E490E09B878A8792
:101B40001D861C8687E490E09F878E87198A188AF5
:101B500088E490E022C08FE690E09F838E8385E842
:101B600090E09B838A8384E890E09D838C8380E867
:101B700090E09987888781E890E09B878A8789E849
:101B800090E09D878C8788E890E09F878E878BE820
:101B900090E0998B888B8AE890E09B8B8A8B1D8ADA
:101BA0001C8A1F8A1E8A82E0898323C01B821A82B4
:101BB00082EB90E09D838C8380E790E09F838E830F
:101BC00080EB90E09987888781EB90E09B878A87FC
:101BD0001D861C8683EB90E09F878E87198A188A62
:101BE00084EB90E09B8B8A8B1D8A1C8A1F8A1E8A3D
:101BF000698360E0CE010E94640DEA81FB81309729
:101C000009F01082EC81FD811082198E188E1B8ED6
:101C10001A8E1D8E1C8E1F8E1E8E19A218A2DF9189
:101C2000CF91089551E0411101C050E06530F0F4CA
:101C3000E62FF0E0E95DFD4F408147FD17C0DC0174
:101C40001696ED91FC911797808121E030E0042EEB
:101C500001C0220F0A94EAF720952823852F042E2D
:101C600001C0880F0A94EAF7282B20830895623078
:101C700099F028F4662341F06130C9F409C063305B
:101C800079F06430A1F410C0FC01518F408F0FC077
:101C9000FC01538F428F0BC0FC01558F448F07C04E
:101CA000FC01578F468F03C0FC0151A340A3452B75
:101CB00011F440E003C0222319F041E00C94120E0D
:101CC0000895DC011896ED91FC9119973081262F2B
:101CD00023703C7F232B20831A96ED91FC911B9758
:101CE00080816C70660F877E682B60830895FC018D
:101CF0008181681740F59081992311F0923011F499
:101D0000813049F0662329F0613029F0623031F4E6
:101D100004C026E003C024E001C022E00084F18575
:101D2000E02D308183E090E0022E01C0880F0A94FC
:101D3000EAF7809583234370022E01C0440F0A9472
:101D4000EAF7842B80830895FC0181816817F8F4F9
:101D5000611109C0A485B585109709F05C930684CC
:101D6000F785E02D13C0613049F4A089B18910973F
:101D700009F05C930288F389E02D08C0623039F4E1
:101D8000A489B5895C930688F789E02D408308957E
:101D900060E08FE793E00E94830D61E08DE593E0C2
:101DA0000E94830D62E08BE393E00C94830DA1E22B
:101DB0001A2EAA1BBB1BFD010DC0AA1FBB1FEE1FC5
:101DC000FF1FA217B307E407F50720F0A21BB30B10
:101DD000E40BF50B661F771F881F991F1A9469F78C
:101DE00060957095809590959B01AC01BD01CF01E8
:101DF0000895052E97FB16F4009407D057FD0DD0DB
:101E00000E94D70E07FC09D07EF4909580957095BE
:101E100061957F4F8F4F9F4F089550954095309516
:101E200021953F4F4F4F5F4F0895EE0FFF1F0590D5
:101E3000F491E02D09940F931F93CF93DF93823099
:101E4000910510F482E090E0E091A303F091A403E7
:101E500020E030E0C0E0D0E023C04081518148174D
:101E60005907A8F04817590761F482819381209798
:101E700019F09B838A832EC09093A4038093A303BD
:101E800029C02115310529F04217530710F0A90187
:101E900002C0BE01DF0102811381EF019A01F80146
:101EA0003097D9F62115310509F1281B390B24305B
:101EB000310590F412968D919C91139761157105DF
:101EC00021F0FB019383828304C09093A403809349
:101ED000A303FD01329644C0FD01E20FF31F81937D
:101EE0009193225031092D933C933AC02091A10344
:101EF0003091A203232B41F4209102013091030180
:101F00003093A2032093A10320910001309101019D
:101F10002115310541F42DB73EB740910401509190
:101F20000501241B350BE091A103F091A203E217F8
:101F3000F307A0F42E1B3F0B2817390778F0AC01EC
:101F40004E5F5F4F2417350748F04E0F5F1F5093C9
:101F5000A2034093A1038193919302C0E0E0F0E0DB
:101F6000CF01DF91CF911F910F910895EF92FF92D2
:101F70000F931F93CF93DF93009709F48FC0DC0179
:101F8000129713961C921E921297E090A303F09062
:101F9000A403E114F10489F42D913C911197280FC9
:101FA000391F8091A1039091A2038217930789F5AD
:101FB000B093A203A093A10371C0E70120E030E039
:101FC00001C0EA01CA17DB0738F44A815B819E0130
:101FD00041155105B1F722C0BC0162507109FB01E6
:101FE000D383C28300811181AC01400F511F4C1774
:101FF0005D0761F448815981400F511F4E5F5F4F6B
:10200000518340834A815B8153834283211531058B
:1020100029F4B093A403A093A30340C0F901B383B0
:10202000A283E90169917991C60FD71FAC17BD074B
:1020300079F4DC015E914E91460F571F4E5F5F4F62
:102040005183408312968D919C9113979383828341
:10205000A0E0B0E002C0D7017C01F701828193814A
:102060000097C9F7C701029620813181820F931F23
:102070002091A1033091A2032817390779F4109712
:1020800029F41092A4031092A30304C013961C9287
:102090001E921297F092A203E092A103CDB7DEB791
:1020A000E6E00C949A11A0E0B0E0E9E5F0E10C94D0
:1020B0007811EC01009729F4CB010E941B0FEC0171
:1020C000B8C0DC01A60FB71FFC013297AE17BF07DF
:1020D00018F4C0E0D0E0ADC00081118106171707E9
:1020E000B0F00530110508F4A4C0C80104978617A4
:1020F000970708F49EC002501109061B170B0D9399
:102100001D9371836083CD010E94B60F92C07B0145
:10211000E01AF10A5C01A00EB11EE091A303F09158
:10212000A403812C912C80E090E04CC0EA15FB05C3
:10213000F1F5408151816A0122E0C20ED11CCE141A
:10214000DF04A8F19A012E193F097901690132E0F3
:10215000C30ED11C2EEFA22EBB24BA94AC0EBD1E12
:1021600025E0C216D10478F04281538113965C9326
:102170004E9312971196FC92EE92F5017183608353
:102180003A2F2B2F09C00E5F1F4F040F151FD501CB
:102190000D931C9332812381009721F0FC0132833F
:1021A000238347C03093A3032093A40342C08081BC
:1021B00091818816990608F44C0152814381CF0120
:1021C000E52FF42F309709F0B1CF8091A1039091C2
:1021D000A2038A159B05F1F486169706D8F4809120
:1021E000000190910101009741F48DB79EB72091B5
:1021F000040130910501821B930BA817B90708F061
:1022000068CFB093A203A093A103FE01329771831C
:1022100060830FC0CB010E941B0F7C01009709F463
:1022200058CFA801BE010E941F11CE010E94B60F17
:10223000E701CE01CDB7DEB7ECE00C949411FB01C1
:10224000DC0102C001900D9241505040D8F7089532
:10225000FB01DC018D91019080190110D9F3990BDC
:102260000895FB01DC0101900D920020E1F7089533
:10227000FB019F01423074F0453264F4642F7727EC
:102280000E945E11805D8A330CF0895D8193CB01E1
:102290000097A1F71082C9010C944E11DC01FC01DA
:1022A000672F71917723E1F7329704C07C916D938A
:1022B00070836291AE17BF07C8F30895AA1BBB1BBA
:1022C00051E107C0AA1FBB1FA617B70710F0A61B36
:1022D000B70B881F991F5A95A9F780959095BC0157
:1022E000CD0108952F923F924F925F926F927F920D
:1022F0008F929F92AF92BF92CF92DF92EF92FF9216
:102300000F931F93CF93DF93CDB7DEB7CA1BDB0BC1
:102310000FB6F894DEBF0FBECDBF09942A88398866
:1023200048885F846E847D848C849B84AA84B9846D
:10233000C884DF80EE80FD800C811B81AA81B98179
:10234000CE0FD11D0FB6F894DEBF0FBECDBFED018D
:10235000089510E0C2E8D0E004C0FE010E94170F0B
:0C2360002296C438D107C9F7F894FFCFCB
:10236C000000A50320000E000F0005040309080758
:10237C00063132333435363738392A30234E756DC1
:10238C00626572206F6620617474656D7074732061
:10239C006578636565646564002A00446F6F72201C
:1023AC00636C6F736564002300417474656D7074A5
:1023BC002064656C65746564004E756D6265722091
:1023CC006F6620617474656D7074733A2000446F8D
:1023DC006F72206F70656E65642121005379737480
:1023EC00656D206C6F636B65640053797374656DF8
:1023FC0020756E6C6F636B656400446F6F72206F39
:10240C0070656E656420746F6F206D7563682074E1
:10241C00696D6500446F6F7220636C6F7365642126
:10242C0021004D6F74696F6E20646574656374650B
:10243C0064004D6F74696F6E20656E646564003165
:10244C0032333400393837360034353637003738C4
:10245C00393000000000002F067609E105E6050C76
:10246C0006FA0500000000070687068D060000002E
:10247C000002067B06810601020304050607010221
:0C248C0000030004050607000102030520
:00000001FF
